{
  "_format": "hh-sol-artifact-1",
  "contractName": "SimpleTokenFactory",
  "sourceName": "contracts/SimpleTokenFactory.sol",
  "abi": [
    {
      "anonymous": false,
      "inputs": [
        {
          "indexed": true,
          "internalType": "address",
          "name": "tokenAddress",
          "type": "address"
        },
        {
          "indexed": true,
          "internalType": "address",
          "name": "deployer",
          "type": "address"
        },
        {
          "indexed": false,
          "internalType": "string",
          "name": "name",
          "type": "string"
        },
        {
          "indexed": false,
          "internalType": "string",
          "name": "symbol",
          "type": "string"
        },
        {
          "indexed": false,
          "internalType": "uint256",
          "name": "initialSupply",
          "type": "uint256"
        },
        {
          "indexed": true,
          "internalType": "address",
          "name": "recipient",
          "type": "address"
        }
      ],
      "name": "TokenDeployed",
      "type": "event"
    },
    {
      "inputs": [
        {
          "internalType": "string",
          "name": "name",
          "type": "string"
        },
        {
          "internalType": "string",
          "name": "symbol",
          "type": "string"
        },
        {
          "internalType": "uint256",
          "name": "initialSupply",
          "type": "uint256"
        },
        {
          "internalType": "address",
          "name": "recipient",
          "type": "address"
        }
      ],
      "name": "deployToken",
      "outputs": [
        {
          "internalType": "address",
          "name": "tokenAddress",
          "type": "address"
        }
      ],
      "stateMutability": "nonpayable",
      "type": "function"
    },
    {
      "inputs": [
        {
          "internalType": "uint256",
          "name": "",
          "type": "uint256"
        }
      ],
      "name": "deployedTokens",
      "outputs": [
        {
          "internalType": "address",
          "name": "",
          "type": "address"
        }
      ],
      "stateMutability": "view",
      "type": "function"
    },
    {
      "inputs": [],
      "name": "getDeployedTokenCount",
      "outputs": [
        {
          "internalType": "uint256",
          "name": "count",
          "type": "uint256"
        }
      ],
      "stateMutability": "view",
      "type": "function"
    },
    {
      "inputs": [],
      "name": "getDeployedTokens",
      "outputs": [
        {
          "internalType": "address[]",
          "name": "tokens",
          "type": "address[]"
        }
      ],
      "stateMutability": "view",
      "type": "function"
    },
    {
      "inputs": [
        {
          "internalType": "address",
          "name": "deployer",
          "type": "address"
        }
      ],
      "name": "getTokenCountByDeployer",
      "outputs": [
        {
          "internalType": "uint256",
          "name": "count",
          "type": "uint256"
        }
      ],
      "stateMutability": "view",
      "type": "function"
    },
    {
      "inputs": [
        {
          "internalType": "address",
          "name": "deployer",
          "type": "address"
        }
      ],
      "name": "getTokensByDeployer",
      "outputs": [
        {
          "internalType": "address[]",
          "name": "tokens",
          "type": "address[]"
        }
      ],
      "stateMutability": "view",
      "type": "function"
    },
    {
      "inputs": [
        {
          "internalType": "address",
          "name": "",
          "type": "address"
        },
        {
          "internalType": "uint256",
          "name": "",
          "type": "uint256"
        }
      ],
      "name": "tokensByDeployer",
      "outputs": [
        {
          "internalType": "address",
          "name": "",
          "type": "address"
        }
      ],
      "stateMutability": "view",
      "type": "function"
    }
  ],
  "bytecode": "0x608060405234801561001057600080fd5b50611395806100206000396000f3fe60806040523480156200001157600080fd5b5060043610620000875760003560e01c8063804215f61162000062578063804215f61462000114578063dd267e3a146200011d578063ec81aadb1462000134578063ecc48735146200014b57600080fd5b80631dcdaceb146200008c5780632efc6c0414620000cb578063622ae7aa14620000fb575b600080fd5b620000b86200009d366004620004fb565b6001600160a01b031660009081526001602052604090205490565b6040519081526020015b60405180910390f35b620000e2620000dc3660046200056c565b62000162565b6040516001600160a01b039091168152602001620000c2565b6200010562000390565b604051620000c29190620005fd565b600054620000b8565b620000e26200012e3660046200064c565b620003f4565b620000e26200014536600462000679565b6200042d565b620001056200015c366004620004fb565b62000458565b600085620001c15760405162461bcd60e51b815260206004820152602160248201527f53696d706c65546f6b656e466163746f72793a206e616d6520726571756972656044820152601960fa1b60648201526084015b60405180910390fd5b836200021c5760405162461bcd60e51b815260206004820152602360248201527f53696d706c65546f6b656e466163746f72793a2073796d626f6c2072657175696044820152621c995960ea1b6064820152608401620001b8565b6001600160a01b0382166200027f5760405162461bcd60e51b815260206004820152602260248201527f53696d706c65546f6b656e466163746f72793a207a65726f20726563697069656044820152611b9d60f21b6064820152608401620001b8565b60008787878787876040516200029590620004d0565b620002a696959493929190620006bc565b604051809103906000f080158015620002c3573d6000803e3d6000fd5b5060008054600181810183557f290decd9548b62a8d60345a988386fc84ba6bc95484008f6362f93160ef3e56390910180546001600160a01b038086166001600160a01b0319928316811790935533808652602085815260408088208054978801815588529620909401805490921683179091559251939550859450918616929091907f35fabcfc819a5e4f2df3a5067f7284f591cbffd46eb2b9a555aca3cea3ece575906200037d908d908d908d908d908d906200070b565b60405180910390a4509695505050505050565b60606000805480602002602001604051908101604052809291908181526020018280548015620003ea57602002820191906000526020600020905b81546001600160a01b03168152600190910190602001808311620003cb575b5050505050905090565b600160205281600052604060002081815481106200041157600080fd5b6000918252602090912001546001600160a01b03169150829050565b600081815481106200043e57600080fd5b6000918252602090912001546001600160a01b0316905081565b6001600160a01b038116600090815260016020908152604091829020805483518184028101840190945280845260609392830182828015620004c457602002820191906000526020600020905b81546001600160a01b03168152600190910190602001808311620004a5575b50505050509050919050565b610c16806200074a83390190565b80356001600160a01b0381168114620004f657600080fd5b919050565b6000602082840312156200050e57600080fd5b6200051982620004de565b9392505050565b60008083601f8401126200053357600080fd5b50813567ffffffffffffffff8111156200054c57600080fd5b6020830191508360208285010111156200056557600080fd5b9250929050565b600080600080600080608087890312156200058657600080fd5b863567ffffffffffffffff808211156200059f57600080fd5b620005ad8a838b0162000520565b90985096506020890135915080821115620005c757600080fd5b50620005d689828a0162000520565b90955093505060408701359150620005f160608801620004de565b90509295509295509295565b6020808252825182820181905260009190848201906040850190845b81811015620006405783516001600160a01b03168352928401929184019160010162000619565b50909695505050505050565b600080604083850312156200066057600080fd5b6200066b83620004de565b946020939093013593505050565b6000602082840312156200068c57600080fd5b5035919050565b81835281816020850137506000828201602090810191909152601f909101601f19169091010190565b608081526000620006d260808301888a62000693565b8281036020840152620006e781878962000693565b604084019590955250506001600160a01b0391909116606090910152949350505050565b6060815260006200072160608301878962000693565b82810360208401526200073681868862000693565b915050826040830152969550505050505056fe60806040523480156200001157600080fd5b5060405162000c1638038062000c168339810160408190526200003491620001ec565b6001600160a01b0381166200008f5760405162461bcd60e51b815260206004820152601c60248201527f466163746f727945524332303a207a65726f20726563697069656e7400000000604482015260640160405180910390fd5b60006200009d858262000310565b506001620000ac848262000310565b50620000bb6012600a620004f1565b620000c7908362000509565b60028190556001600160a01b038216600081815260036020908152604080832085905551938452919290917fddf252ad1be2c89b69c2b068fc378daa952ba7f163c4a11628f55a4df523b3ef910160405180910390a35050505062000523565b634e487b7160e01b600052604160045260246000fd5b600082601f8301126200014f57600080fd5b81516001600160401b03808211156200016c576200016c62000127565b604051601f8301601f19908116603f0116810190828211818310171562000197576200019762000127565b81604052838152602092508683858801011115620001b457600080fd5b600091505b83821015620001d85785820183015181830184015290820190620001b9565b600093810190920192909252949350505050565b600080600080608085870312156200020357600080fd5b84516001600160401b03808211156200021b57600080fd5b62000229888389016200013d565b955060208701519150808211156200024057600080fd5b506200024f878288016200013d565b60408701516060880151919550935090506001600160a01b03811681146200027657600080fd5b939692955090935050565b600181811c908216806200029657607f821691505b602082108103620002b757634e487b7160e01b600052602260045260246000fd5b50919050565b601f8211156200030b57600081815260208120601f850160051c81016020861015620002e65750805b601f850160051c820191505b818110156200030757828155600101620002f2565b5050505b505050565b81516001600160401b038111156200032c576200032c62000127565b62000344816200033d845462000281565b84620002bd565b602080601f8311600181146200037c5760008415620003635750858301515b600019600386901b1c1916600185901b17855562000307565b600085815260208120601f198616915b82811015620003ad578886015182559484019460019091019084016200038c565b5085821015620003cc5787850151600019600388901b60f8161c191681555b5050505050600190811b01905550565b634e487b7160e01b600052601160045260246000fd5b600181815b8085111562000433578160001904821115620004175762000417620003dc565b808516156200042557918102915b93841c9390800290620003f7565b509250929050565b6000826200044c57506001620004eb565b816200045b57506000620004eb565b81600181146200047457600281146200047f576200049f565b6001915050620004eb565b60ff841115620004935762000493620003dc565b50506001821b620004eb565b5060208310610133831016604e8410600b8410161715620004c4575081810a620004eb565b620004d08383620003f2565b8060001904821115620004e757620004e7620003dc565b0290505b92915050565b60006200050260ff8416836200043b565b9392505050565b8082028115828204841417620004eb57620004eb620003dc565b6106e380620005336000396000f3fe608060405234801561001057600080fd5b50600436106100935760003560e01c8063313ce56711610066578063313ce5671461010357806370a082311461011d57806395d89b411461013d578063a9059cbb14610145578063dd62ed3e1461015857600080fd5b806306fdde0314610098578063095ea7b3146100b657806318160ddd146100d957806323b872dd146100f0575b600080fd5b6100a0610183565b6040516100ad919061050c565b60405180910390f35b6100c96100c4366004610576565b610211565b60405190151581526020016100ad565b6100e260025481565b6040519081526020016100ad565b6100c96100fe3660046105a0565b61027d565b61010b601281565b60405160ff90911681526020016100ad565b6100e261012b3660046105dc565b60036020526000908152604090205481565b6100a0610419565b6100c9610153366004610576565b610426565b6100e26101663660046105fe565b600460209081526000928352604080842090915290825290205481565b6000805461019090610631565b80601f01602080910402602001604051908101604052809291908181526020018280546101bc90610631565b80156102095780601f106101de57610100808354040283529160200191610209565b820191906000526020600020905b8154815290600101906020018083116101ec57829003601f168201915b505050505081565b3360008181526004602090815260408083206001600160a01b038716808552925280832085905551919290917f8c5be1e5ebec7d5bd14f71427d1e84f3dd0314c0f7b2291e5b200ac8c7c3b9259061026c9086815260200190565b60405180910390a350600192915050565b60006001600160a01b0383166102da5760405162461bcd60e51b815260206004820152601c60248201527f466163746f727945524332303a207a65726f20726563697069656e740000000060448201526064015b60405180910390fd5b6001600160a01b0384166000908152600360205260409020548211156103125760405162461bcd60e51b81526004016102d19061066b565b6001600160a01b0384166000908152600460209081526040808320338452909152902054828110156103925760405162461bcd60e51b8152602060048201526024808201527f466163746f727945524332303a20696e73756666696369656e7420616c6c6f77604482015263616e636560e01b60648201526084016102d1565b6001600160a01b03858116600081815260046020908152604080832033845282528083208887039055838352600382528083208054899003905593881680835291849020805488019055925186815290927fddf252ad1be2c89b69c2b068fc378daa952ba7f163c4a11628f55a4df523b3ef910160405180910390a3506001949350505050565b6001805461019090610631565b60006001600160a01b03831661047e5760405162461bcd60e51b815260206004820152601c60248201527f466163746f727945524332303a207a65726f20726563697069656e740000000060448201526064016102d1565b336000908152600360205260409020548211156104ad5760405162461bcd60e51b81526004016102d19061066b565b336000818152600360209081526040808320805487900390556001600160a01b03871680845292819020805487019055518581529192917fddf252ad1be2c89b69c2b068fc378daa952ba7f163c4a11628f55a4df523b3ef910161026c565b600060208083528351808285015260005b818110156105395785810183015185820160400152820161051d565b506000604082860101526040601f19601f8301168501019250505092915050565b80356001600160a01b038116811461057157600080fd5b919050565b6000806040838503121561058957600080fd5b6105928361055a565b946020939093013593505050565b6000806000606084860312156105b557600080fd5b6105be8461055a565b92506105cc6020850161055a565b9150604084013590509250925092565b6000602082840312156105ee57600080fd5b6105f78261055a565b9392505050565b6000806040838503121561061157600080fd5b61061a8361055a565b91506106286020840161055a565b90509250929050565b600181811c9082168061064557607f821691505b60208210810361066557634e487b7160e01b600052602260045260246000fd5b50919050565b60208082526022908201527f466163746f727945524332303a20696e73756666696369656e742062616c616e604082015261636560f01b60608201526080019056fea264697066735822122008bc6c92a96541428d20f05880c082799e9cc09a7fd7e60a79a3cd7e138eb07264736f6c63430008140033a2646970667358221220fcab68fa8eeccab78bb0ef193953dcadff1d839bd2f47adf2c7d5cb093201f9164736f6c63430008140033",
  "linkReferences": {},
  "deployedLinkReferences": {}
}